:020000040800F2
:10000000704F002081020008D941000829350008FE
:1000100051410008070B00084D4D0008000000008A
:10002000000000000000000000000000C101000806
:100030004D0C0008000000001D02000831430008BC
:100040009B0200089B0200089B0200089B0200081C
:100050009B0200089B0200089B0200089B0200080C
:100060004F0C00089B020008550C00089B0200087A
:100070009B0200089B020008610B00089B0200081D
:100080006D0B0008790B00089B0200089B0200081A
:10009000090B00089B0200089B0200085B0C00088B
:1000A0009B0200084D4400089B0200089B020008C8
:1000B0009B020008594400089B0200089B020008AC
:1000C0009B0200089B0200089B0200089B0200089C
:1000D0009B020008194B00089B0200089B020008C5
:1000E0009B0200089B0200089B0200088544000850
:1000F0009B0200089B0200089B0200089B0200086C
:100100009B0200089B0200089B0200089B0200085B
:100110009B0200089B020008794400089B0200082B
:100120009B020008850B0008910B00089B02000849
:100130009D0B00089B0200089B0200089B02000820
:10014000150B00089B0200089B0200089B02000898
:100150009B0200089B0200089B020008354C000827
:100160009B0200089B0200089B0200089B020008FB
:100170009B0200089B0200089B0200080000000090
:100180009B0200089B0200089B02000865470008CC
:100190009B0200089B0200089B0200089B020008CB
:1001A00000000000000000009B020008DFF80CD0F7
:1001B00000F0E2FA00480047514E0008704F00205E
:1001C0002C4B19680868B0E8F04F80F30988BFF33A
:1001D0006F8F4FF0000080F311887047000000001F
:1001E00008480068006880F308884FF0000080F33A
:1001F000148862B661B6BFF34F8FBFF36F8F00DF15
:1002000000BF00BF08ED00E0DFF80C00016841F41A
:1002100070010160704700BF88ED00E0EFF30980D6
:10022000BFF36F8F134B1A681EF0100F08BF20ED3D
:10023000108A20E9F04F106009B44FF0500080F3AD
:100240001188BFF34F8FBFF36F8F05F0BBFB4FF0EB
:10025000000080F3118809BC19680868B0E8F04F05
:100260001EF0100F08BFB0EC108A80F30988BFF3AE
:100270006F8F70474C000020EFF30580704700003F
:100280000648804706480047FEE7FEE7FEE7FEE730
:10029000FEE7FEE7FEE7FEE7FEE7FEE7DD430008D8
:1002A000AD0100082DE9F05F0546002092469B460F
:1002B00088460646814640241BE02846414647467C
:1002C000224600F0A3F953465A46C01A914110D372
:1002D00011461846224600F08AF92D1A67EB0108EC
:1002E0004F4622460120002100F081F917EB00095A
:1002F0004E41201EA4F10104DFDC484631462A4667
:100300004346BDE8F09F40EA01039B0703D009E0A4
:1003100008C9121F08C0042AFAD203E011F8013BF1
:1003200000F8013B521EF9D27047D2B201E000F84A
:10033000012B491EFBD270470022F6E710B5134689
:100340000A4604461946FFF7F0FF204610BD2DE986
:10035000FE4F804681EA0300C00F0C46009021F05A
:10036000004123F00045B8EB0200A94105D2404608
:10037000214690461C460B46024623F0004010439F
:1003800047D0270DC7F30A00C3F30A510290401A61
:10039000019040286BDAC3F3130040F4801B0098EF
:1003A000924620B10023D2EB030A63EB0B0B0198BA
:1003B0005946C0F14002504600F019F906460D4674
:1003C00050465946019A00F031F910EB080061419E
:1003D000002487EA115284EAE7731A4340D0009A56
:1003E00062B3019A012A4FEA075215DC001B61EB48
:1003F00002014FF0004202EA0752CDE90042001C20
:1004000041F5801132462B4600F068F903B0BDE893
:10041000F08F40462146F9E7001B61EB0201001C0A
:1004200041F5801300185B412018A2F5001747EB37
:10043000030140EAD570B6196D4111E06D084FEA2D
:10044000360645EAC0754FEA0752001B61EB020110
:10045000001C41F5801149084FEA30000019514154
:1004600032462B4603B0BDE8F04F00F028B90098A3
:10047000012240000023D0EB020263EBE0730098FE
:1004800021464FEAE074B8EB000061EB0401E9E7B4
:1004900083F000435BE781F0004158E72DE9F04D20
:1004A00081EA030404F0004B21F0004514464FF0AC
:1004B000000A23F0004150EA050220D054EA01026C
:1004C0001DD0C5F30A570246C5F31303C1F3130049
:1004D000C1F30A5640F4801543F48013A7EB0608D5
:1004E000101BD64608F2FD3873EB050002D308F165
:1004F000010801E092185B41B8F1000F03DA002017
:100500000146BDE8F08D00204FF480110646844678
:100510000EE0171B73EB050705D3121B63EB0503F6
:1005200006434CEA010C49084FEA300092185B413F
:1005300050EA0107EDD152EA030012D082EA04002A
:1005400083EA0501084305D0101BAB4106D2012206
:10055000002306E000224FF0004302E06FF00102AA
:1005600053101AEB06004CEB085110EB0A0041EB5C
:100570000B01BDE8F04D00F0A2B80EB5C10F80EA46
:10058000E0700844CA07002140F233438DE80E00B2
:100590000A460B4600F0A2F803B000BD0EB540F2CB
:1005A000334102910021CDE900110A460B4600F0CB
:1005B00095F803B000BD01F0004330B421F00041D4
:1005C00050EA010206D00A0DA2F56072C1F31301D0
:1005D000002A02DC30BC00207047440F44EAC1040A
:1005E000C100E01830BC00EBC25000F031B8202A46
:1005F00004DB203A00FA02F1002070479140C2F17A
:10060000200320FA03F3194390407047202A04DBAB
:10061000203A21FA02F00021704721FA02F3D0407B
:10062000C2F120029140084319467047202A06DB98
:10063000CB17203A41FA02F043EAE07306E041FAB0
:1006400002F3D040C2F1200291400843194670479E
:100650000029A8BF7047401C490008BF20F00100D6
:10066000704710B4B0FA80FC00FA0CF050EA0104B4
:1006700004BF10BC704749B1CCF1200421FA04F446
:1006800011FA0CF118BF012121430843A3EB0C011F
:10069000CB1D4FEA00614FEA102042BF002010BC82
:1006A000704700EBC35010440029A4BF10BC704732
:1006B000401C490008BF20F0010010BC704710B575
:1006C000141E73F1000408DA401C41F10001921875
:1006D0005B411A4301D120F0010010BD2DE9F04D1E
:1006E00092469B4611B1B1FA81F202E0B0FA80F273
:1006F00020329046FFF77BFF04460F4640EA0A008F
:1007000041EA0B0153465A46084313D0114653EAB7
:10071000010019D0C8F140025046FFF777FF0546A7
:100720000E46504659464246FFF761FF084305D042
:10073000012004E020463946BDE8F08D0020054345
:1007400046EAE0762C4337430A986305E40AA0EBB7
:1007500008000022FD0A44EA47540A3002D500206E
:100760000146E9E7010510196941DDE9084500196D
:100770006941BDE8F04DA2E7064C074D06E0E06890
:1007800040F0010394E8070098471034AC42F6D3D8
:10079000FFF710FD705E0008905E0008D0ED000AC3
:1007A000F4EEC00AF1EE10FA01DD80ED000AD0EDA2
:1007B000000AB1EE400AF4EEC00AF1EE10FA01D2DE
:1007C00080ED000A704710B50146806B026C12F094
:1007D000500F05D0026CD20626D500F0A1FC10BD4A
:1007E000016C41F40071016401688A6812F0405F95
:1007F00017D1027EAAB9CA6A12F4700F02D08A68B1
:1008000052050ED44A6822F020024A60016C21F49D
:1008100080710164016CC90403D4016C41F00101D1
:10082000016400F07BFC10BD806BC26CBDE8104021
:100830000846104710B5806B40210164416C41F0BF
:100840000401416400F06CFC10BD10B5806B00F039
:1008500066FC10BD464910B54A6822F440324A6031
:100860004A6843681A434A6001684A6822F4807201
:100870004A6001684A68036942EA03224A600168E3
:100880004A6822F040724A6001684A6883681A43E5
:100890004A6001688A6822F400628A6001688A6896
:1008A000C3681A438A60816A6FF07062D14201683E
:1008B0008A6822F070628A6001688A680CD0836A54
:1008C0001A438A6001688A6822F040528A6001688F
:1008D0008A68C36A1A4301E022F040528A600168C4
:1008E0008A6822F002028A6001688A68037E42EA0E
:1008F00043028A6090F82010002901684A680FD0EE
:1009000042F400624A6001684A6822F460424A6028
:1009100001684A68174C436A04EB43331A4301E009
:1009200022F400624A600168CA6A22F47002CA6254
:100930000168CA6A838B104C04EB03531A43CA62E2
:1009400001688A6822F400728A6001688A6890F8F7
:10095000303042EA43228A6001688A6822F4806269
:100960008A6001688A68406942EA8020886010BD18
:100970000023014000E0FFFF0000F0FF1CB50C4B1E
:1009800008224FF400741A6100229A601C60DA6039
:100990000B0A8DF800308DF801108DF802208DF8CB
:1009A0000320019201236A46014900F051FD1CBD5C
:1009B0004C47002010B503F033F903F0B7F803F00B
:1009C00061FA03F095FA03F06DF803F08DF803F087
:1009D000EFFA03F02FFA03F033F803F007FA03F00D
:1009E0000DFB03F027FB03F041FB03F05DFB03F07D
:1009F00077FB03F091FB03F0FDFB194800F092F840
:100A0000184800F08FF8164801F006F9154801F073
:100A100003F9154800F0FCFB00F026F902F01EFF78
:100A200003F006FD12221149114800F061F80B2273
:100A30001049114800F05CF809221049104800F0F4
:100A400057F80A220F49084800F058FC02210448D0
:100A500000F0ECFCBDE810400221024800F0E6BCCA
:100A6000A4010020CC010020FC000020A0490020AF
:100A700020060020B2490020E0050020044A0020A2
:100A8000E0060020C847002070B5044690F8390001
:100A9000202801D0212829D121B31AB394F8380095
:100AA000012823D0012084F83800A162A285002506
:100AB000E56394F83900212816D0222084F8390003
:100AC00008461346666B216802463046091D01F050
:100AD00011FA2068416941F04001416184F83850C1
:100AE000002070BD012070BD2320E7E7022070BD0B
:100AF00010B50446FFF7C8FF2068C16841F0100137
:100B0000C160002010BDFEE7014800F000BE0000FB
:100B1000A4010020014800F0FABD0000CC01002033
:100B20007047704700B58BB000210122CDE9061255
:100B3000039108920E22094B0491009101910291B8
:100B40000992984200D1059104492831884200D188
:100B50000592694600F0E0FC0BB000BDA401002046
:100B6000014801F08DB8000020070020014801F085
:100B700087B8000040080020014801F081B800005B
:100B800080070020014801F07BB80000A008002089
:100B9000014801F075B80000E0070020014801F0AD
:100BA0006FB800004401002001681823CAB2103A4F
:100BB000B2FBF3F2054B6FF30901032A9B5CC3659B
:100BC00000D9091D8165084670470000145E0008C1
:100BD00010B5014600208B698A6A4FF0C07453B18A
:100BE000B3F5005F15D072B1012A0CD0022A0AD0E9
:100BF000032A09D104E01AB1012A06D0022A03D13E
:100C0000C96AC90100D5012010BDC96AA142FAD044
:100C100010BD002AF7D0012AF2D0022AF3D0032A0D
:100C2000F3D010BD30B50468256825F48025256013
:100C3000046863608368402B036803D09960006890
:100C4000C26030BD9A600068C16030BD704704204A
:100C500001F0C4B9102001F0C1B9802001F0BEB983
:100C6000704703F0FFBB00002DE9F0471C48006807
:100C7000016841F0010101600021194802F0FEF90C
:100C80000421174802F0FAF90821154802F0F6F994
:100C9000642001F08FF9134CC825256040F6B83860
:100CA000404601F087F9642626604FF4FA69484609
:100CB00001F080F9692727604FF47A7001F07AF922
:100CC000241D2560404601F075F92660484601F074
:100CD00071F92760BDE8F047642001F06BB90000AE
:100CE000E0040020340C004010B50F4C2DED028BB9
:100CF000A068FFF742FC41EC180BE0680068406A0E
:100D0000FFF74CFC9FED091B53EC112BFFF7C6FBC3
:100D100053EC182BFFF71BFBFFF74DFCBDEC028BD0
:100D200000EE100A10BD0000504800200000000036
:100D30000000594070B541F288342DED028B41F22C
:100D400070759FED0F8AB0EE001A9FED0E0AF0EE5F
:100D5000480A23462A4603210B4803F03FFAB0EE27
:100D6000481ABDEC028B23462A46BDE8704006486F
:100D70000321DFED060AB7EE080A803003F02EBA31
:100D800000000000CDCC4C3E284A0020CDCCCC3D0C
:100D900008B54FF4FA6004F070F804F037FF0090E3
:100DA000FFF7C8FF764D4FF000080127DFF8D4B1F8
:100DB000754C764E6F70A5F5807AC146032003F01E
:100DC0004BFAFFF791FFBDEEC00A86ED0C0A2F70BB
:100DD000E07850B9B8EEC00AD4ED020A6C4930EEA2
:100DE000600A10EE100A884207DA05202870FFF723
:100DF0007BFFBDEEC00A86ED0B0AA07803F0C6FFAC
:100E000028780B2834D2DFE800F006131D3438436D
:100E1000878787876700207810B184F802903DE0CB
:100E200003F0D0F984F8029070696060277035E0B3
:100E3000A7705848606096ED050AB8EEC00ADFED6D
:100E4000560A09E00320A0705448606096ED050A38
:100E5000B8EEC00ADFED520A524804F055F89AED98
:100E6000140ABDEEC00A10EE108A48462070607069
:100E700052E0DFF83481A770F7E7FFF735FFBDEEEA
:100E8000C00AD846484686ED0C0A84F80290EDE781
:100E90002078A8B184F8039084F8029096ED050AB2
:100EA000D4ED010A3F48B8EEC00AF8EEE00A04F0BB
:100EB0002BF89AED140ABDEEC00A10EE100A2AE0D3
:100EC00003F080F984F80290706960602770FFF782
:100ED0000BFF84ED020AE1E7607890B196ED0C0A11
:100EE000D4ED030A3149B8EEC00A30EE600A10EEC4
:100EF000100A88420DDD03F065F96F7084F80290E6
:100F00000AE084F80290FFF7EFFE84ED030A6770B1
:100F100002E04FF47A708046B6F9000000EE908A45
:100F200000EE100A1648F8EEE00AB8EEC00A803863
:100F300003F0EAFF1248803890ED140ABDEEC00AB3
:100F400010EE100A01B21A48FFF718FD287B02289C
:100F500004D02978022905D001280AD02878012850
:100F600004D006E013480189C18002E011480189DC
:100F70004181287828730A21684603F085FF1DE720
:100F8000284B00200CFEFFFFE800002068460020F0
:100F900000007A44D86EFFFF002811C7184EFEFFEC
:100FA00000F4D8C7284A002048F4FFFF0000FA44A4
:100FB000A4010020104A002078B50024009490F885
:100FC0003C20012A19D0012280F83C200A6807231E
:100FD0000568092A13D9EE680A3A02EB42029340E7
:100FE0009E43EE600B788A680A3B03EB43039A400A
:100FF0000368DD682A43DA6010E0022078BD2E69BC
:1010000002EB420293409E432E610B788A6803EB09
:1010100043039A4003681D692A431A614A681F23E3
:10102000072A13D205686E6B521E02EB82029340B0
:101030009E436E630A8893B20A79521E02EB8202C3
:1010400093400268556B2B43536327E005680D2AD4
:1010500012D22E6BD21F02EB820293409E432E636C
:101060000B790A88DB1F92B203EB83039A40036873
:101070001D6B2A431A6311E0EE6A0D3A02EB8202FD
:1010800093409E43EE620B790A880D3B92B203EBCC
:1010900083039A400368DD6A2A43DA621B4B0568C2
:1010A000194A9D420AD10D68122D07D1556825F4C1
:1010B00000055560556845F48005556005689D42FA
:1010C0001DD1134D0B68AB4201D0112B17D15368C2
:1010D00023F480035360536843F4000353600968AA
:1010E000A9420CD10B490C4A0968B1FBF2F101EBA2
:1010F0008101490000E0491E00910029FBD180F8E0
:101100003C40002078BD0000002301400020014049
:10111000120000104800002040420F007047704746
:10112000704770B504004FF0000503D0206C002616
:1011300010B107E0012070BD204600F01DF8666484
:1011400084F83C60206CC00610D4206C20F48850D9
:1011500040F0020020642046FFF77CFB6664206CB0
:1011600020F0020040F00100206400E0012584F836
:101170003C60284670BD000070B586B0064614215C
:101180006846FFF7D9F81D493068884234D11C48B9
:101190000025016841F480710160006800F48070EE
:1011A000059017481438016841F002010160006899
:1011B000694600F002000590022000900320CDE96E
:1011C0000105104800F016FF104C0F48C4E9000557
:1011D0000015A560C4E90350800060618000A06133
:1011E0008011C4E907052046656200F019FE08B1C8
:1011F000FFF736FDB463A66306B070BD0020014062
:10120000443802400004024070640240440100205F
:1012100018B50021009190F83C20012A07D0012246
:1012200080F83C2002689368DB0702D011E00220BE
:1012300018BD936843F0010393602A4A2A4B126851
:10124000B2FBF3F202EB420200E0521E0092002ACF
:10125000FBD102689368DB0741D0036C40F2016464
:10126000A34343F48073036453685B0505D5036CA3
:1012700023F4005343F480530364036CDB0404D56C
:10128000436C23F00603436400E0416480F83C10A3
:1012900016496FF02203136049680068CA061449B2
:1012A00006D088421BD1816811F0405F13D016E050
:1012B0008842F8D00F4A904203D1D1F80423D206D5
:1012C000F1D00D4A90420AD1D1F8041301F01F0168
:1012D0001029E8D303E0816841F08041816000205B
:1012E00018BD00004800002040420F0000230140CC
:1012F000002001400021014000220140F8B50E46C7
:1013000000210446009190F83C00012807D00120FC
:1013100084F83C0020688368DB0702D011E00220DB
:10132000F8BD836843F0010383603748374B00689A
:10133000B0FBF3F000EB400000E0401E00900028FE
:10134000FBD120688368DB075CD0236C40F2016529
:10135000AB4343F4807323644068400505D5206C9B
:1013600020F4005040F480502064206CC00404D568
:10137000606C20F00600606400E0616484F83C105A
:10138000A16B2448224DC863A16B23480864A16B5C
:101390002248C86421686FF0220008602068416814
:1013A00041F0806141602068816841F48071816012
:1013B0002168134632464C31A06B00F0BEFD6868D0
:1013C0001749C006206806D088421BD1816811F0F9
:1013D000405F13D016E08842F8D0124A904203D101
:1013E000D1F80423D206F1D00F4A90420AD1D1F8A5
:1013F000041301F01F011029E8D303E0816841F0D4
:10140000804181600020F8BD4800002040420F006C
:1014100000230140C70700084B08000835080008F2
:1014200000200140002101400022014090F82020CE
:10143000012A07D0022A05D0416A41F48021416285
:1014400001207047006842690A43426100207047EA
:10145000F0B590F820500468A468012D05D0022D45
:1014600003D0416A41F4802153E014F0406F01D170
:10147000E5004BD5C4F30164022C03D9416A41F461
:10148000000146E00125A5401D608D684FF4C07342
:101490009DB1CE6835434E6845EAC605066803EB44
:1014A0000417F5514FF4C275076805EB04150E6972
:1014B0007E51097D012905D009E00E88CD6845EAF5
:1014C0004655EBE701684E5946F480764E51117946
:1014D000D2F805504FF4C67641EA0525016806EBBF
:1014E00004168D511178D2F801204FF4C47541EAE9
:1014F0000221026805EB04155151006803EB041149
:10150000425842F0010242500020F0BD416A41F4CD
:10151000001141620120F0BD10B590F82020012A91
:1015200007D0022A05D0416A41F48021416201209E
:1015300010BD3B48D0F8002242F00102C0F8002262
:10154000D0F8002222F47C52C0F80022D0F8002209
:101550004B6A42EA0322C0F800220A7D02F01F0310
:1015600001229A40D0F81C329343C0F81C32CB6958
:10157000B3B9D0F80C329343C0F80C328C894B6865
:1015800064F31F434C6900EBC404C4F840320C8977
:101590000B6864F31F434C6900EBC404C4F8443285
:1015A000CB69012B16D1D0F80C321343C0F80C32A2
:1015B0000C884B6864F31F434C6900EBC404C4F807
:1015C00040320C89CB6864F31F434C6900EBC404C0
:1015D000C4F844328B69002BD0F804320ED0134388
:1015E000C0F804320B69002BD0F8143208D0134332
:1015F000C0F81432096A012904D008E09343EFE7E8
:101600009343F5E7D0F81C121143C0F81C12D0F830
:10161000001221F00101C0F80012002010BD0000EE
:1016200000640040704730B590F82040012C05D090
:10163000022C03D0416A41F480215DE00468002956
:1016400055D02469A40754D04FF4D874056804EB2E
:1016500001142D5915F00405956005682D594ED0DB
:10166000ED08556005682C59C4F34004D4604FF46C
:10167000DA74056804EB01142D5905F00F051561A6
:1016800005682D59C5F30725956105682C59240C6B
:1016900054614FF4DC72046802EB0112A4581C7010
:1016A0000468A458240A5C700468A458240C9C7034
:1016B0000468A258120EDA704FF4DE72046802EB6E
:1016C0000112A4581C710468A458240A5C710468AF
:1016D000A458240C9C710468A258120EDA71006898
:1016E00081B1016941F020010161002030BDE46851
:1016F000A8E7416A41F400114162012030BD6D0D3F
:101700001560AFE7C16841F02001C160EDE72DE948
:10171000F05F0546006800244669D0F804908768A9
:10172000D0F80CB0D0F810A0D0F81880F10748D04D
:10173000F90714D001218160B80703D5284600F0CD
:1017400098FA0CE0780702D54FF4006407E03807F8
:1017500002D54FF4805402E0284600F089FAF805DB
:1017600016D529684FF480708860B80503D52846DF
:1017700000F081FA0CE0780502D544F4005407E04B
:10178000380502D544F4804402E0284600F072FA9D
:10179000F80316D529684FF480308860B80303D564
:1017A000284600F06AFA0CE0780302D544F40044BD
:1017B00007E0380302D544F4803402E0284600F004
:1017C0005BFA300707D55FEACB6004D529681020A3
:1017D00044F40074C86070074FF0080707D55FEA4B
:1017E0000B7004D52868C760284600F099F9B00747
:1017F00006D52868C068800702D0284600F092F914
:10180000700607D55FEACA6004D52968102044F441
:1018100080640861B00607D55FEA0A7004D52868BD
:101820000761284600F0F4F9F00606D5286800693B
:10183000800702D0284600F0ECF9B00308D55FEA33
:10184000C96005D5296810204860284600F0E2F9F3
:10185000F00307D55FEA097004D528684760284679
:1018600000F00CFA300446D55FEA497040D5F00527
:1018700004D55FEAC87001D044F00104B00504D576
:101880005FEA887001D544F00204700504D55FEA70
:10189000487001D544F00404300529D518F0700FC4
:1018A00026D008F07000402815D006DC102809D09A
:1018B00020280AD0302816D10AE050280ED06028FF
:1018C00011D10EE044F008040DE044F010040AE0E9
:1018D00044F0200407E044F0400404E044F08004B5
:1018E00001E044F480742868816921F0700181610D
:1018F000296804204860002C05D0686A204368628B
:101900002846FFF78FFEBDE8F09F70B5040003D0B6
:1019100094F8200010B104E0012070BD204600F0D2
:1019200081F82068016821F00201016000F052FC9A
:101930000546052604E000F04DFC401B0A2811D89E
:10194000206840688007F6D42068016841F00101F2
:10195000016000F03FFC05460BE000F03BFC401B43
:101960000A2806D9606A40F40030606284F820607A
:10197000D2E720684068C007EFD0207E01282068A9
:1019800001683DD021F080010160607E012820685F
:10199000016838D021F040010160A07E0128206854
:1019A000016833D021F020010160E07E0128206829
:1019B00001682ED041F010010160207F01282068CD
:1019C000016829D021F008010160607F01282068AA
:1019D000016824D021F004010160D4E90201084328
:1019E000D4E90412114308436168491E0843216881
:1019F000C86100206062012084F82000002070BDD2
:101A000041F08001C0E741F04001C5E741F020010D
:101A1000CAE721F01001CFE741F00801D4E741F017
:101A20000401D9E7F0B587B0044614216846FEF7F3
:101A300083FC364B3648DFF8D0E01968D4F800C094
:101A4000334A03250226092710300024491CF44597
:101A500022D11960012907D1016841F000710160AC
:101A6000006800F000700590106840F008001060F9
:101A70001068CDE9005600F00800CDE90470694611
:101A80002448CDE9024500F0B5FA002205211420D2
:101A900000F02CFC142033E0DFF87CE0F44531D179
:101AA000D0F800C04CF0806CC0F800C0D0F800C086
:101AB00001290CF0806CCDF814C0196007D10168C1
:101AC00041F000710160006800F00070059010683E
:101AD00040F002001060106802AB00F002000590B8
:101AE0004FF44050CDE9000683E8B00069460B484A
:101AF00000F080FA00220521402000F0F7FB402092
:101B000000F0E6FB07B0F0BD0064004000000020DC
:101B100030380240000C02400068004000040240DF
:101B200070470000334910B5884242D1324B334AE6
:101B30000021FFF778FD314833240068A0F50070DC
:101B4000013821D004280CD0052852D1022002F0FF
:101B50006FFB2B48816A4A1C8262322910D82649C1
:101B60001CE0012002F064FB2648816A4A1C826264
:101B7000322901D8204911E084621F49214814E02C
:101B800084621D491E4810E0032002F051FB1E48EC
:101B9000816A4A1C8262322904D81749BDE8104084
:101BA00003F051B9846214491748BDE8104003F0AE
:101BB0002BB9164988421CD10F4B104A08331C32EE
:101BC0000021FFF730FD0D481C30006821280BD0A4
:101BD000B0F5087F0DD0A0F51060113809D1BDE82F
:101BE00010400A48FEF79DBFBDE810400748FEF7C9
:101BF00097BF10BDA40100202C0000200009002088
:101C0000A4460020E046002068460020CC010020C9
:101C1000704770477047000070B5044690F8200088
:101C2000012804D0606A40F40020606218E00220BD
:101C300084F820002068016821F00101016000F0B3
:101C4000C9FA05460EE000BF00F0C4FA401B0A289E
:101C500008D9606A40F400306062052084F82000F2
:101C6000012070BD20684068C007EDD1606270BD82
:101C70007047704770477047704770477047000063
:101C80002DE9F84304464FF00009CDF80090634871
:101C90004FF41651A56D0068B0FBF1F72E6894F86B
:101CA0005C10082000FA01F131420FD021680A6867
:101CB00052070BD50A6822F004020A6094F85C10FF
:101CC0008840A860606D40F00100606594F85C1089
:101CD0004FF0010808FA01F0304208D02168496944
:101CE000090604D5A860606D40F00200606594F8B4
:101CF0005C1004208840304208D0216809688907B8
:101D000004D5A860606D40F00400606594F85C1034
:101D100010208840304218D021680968090714D57E
:101D2000A86020680168490304D50068000308D54D
:101D3000A16C07E00168C90503D4016821F008011E
:101D40000160216C09B12046884794F85C1020207E
:101D50008840304231D021680968C9062DD5A86075
:101D600094F8350005282068016806D0490347D556
:101D7000006800031DD4616C1CE021F016010160B5
:101D80002068416921F080014161206C08B9A06C94
:101D900020B12068016821F00801016094F85C100E
:101DA0003F208840A86084F8349084F83580216D05
:101DB0001FE0E16B09B120468847606D00282BD0F9
:101DC000606DC00714D0052084F8350020680168D4
:101DD00021F0010101600098401C0090B84203D836
:101DE00020680068C007F6D184F8349084F8358004
:101DF000E16C002910D001B02046BDE8F04308474F
:101E00000168C905D5D4016821F01001016084F88A
:101E1000349084F83580CCE7BDE8F8834800002092
:101E20002DE9F041044600F0D5F906465CB10025E5
:101E300084F83450022084F835002068016821F0CD
:101E4000010101600DE00120BDE8F08100F0C2F960
:101E5000801B052805D920206065032084F8350003
:101E6000F2E720680068C007F0D1226811682048B6
:101E70000140D4E901031843D4E90336334318433E
:101E800063691843A3691843E3691843236A184335
:101E90000843616A042903D1D4E90B1319430843A9
:101EA000106020684069666A20F0070130460E43E2
:101EB000012704280CD1A06A0643E06A40B12046FD
:101EC000FEF786FE20B14020606584F83570BAE7E1
:101ED000206846612046FEF767FE94F85C203F21AB
:101EE00091408160656584F835700020ACE70000A2
:101EF0003F8010F070B5044690F8340000250128AA
:101F00000CD0012084F8340094F835600020012EB4
:101F100006D084F834000225284670BD022070BD2A
:101F2000022684F8356060652046FEF77BFE206857
:101F3000016841F001010160EEE72DE9F04104463E
:101F4000866D90F83400002501280DD0012084F81A
:101F5000340094F835700020012F07D084F8340045
:101F600002252846BDE8F0810220FBE7022784F81D
:101F7000357060652046FEF755FE94F85C103F20F2
:101F80008840B0602068016841F016010160206857
:101F9000416941F080014161206C20B120680168F5
:101FA00041F0080101602068016841F00101016011
:101FB000D7E7000070B5044600F00CF90546601C38
:101FC00002D004480078044400F004F9401BA04209
:101FD000FAD370BD3C00002070470000044910B5E2
:101FE0000A68024202D00860FFF7F6FF10BD000049
:101FF000143C01402DE9F84FDFF890B100224FF07A
:1020000001084FF0030A4FF00F090BF1040E00BF57
:102010000B6808FA02F42340A3426ED14D68022DEA
:1020200001D0122D0ED1D50800EB850CDCF8205024
:102030005607F70E09FA07F6B5430E69BE402E4360
:10204000CCF82060066855000F790AFA05FC07F005
:10205000030726EA0C06AF40374307604E68012E9F
:1020600005D0022E03D0112E01D0122E0ED187687A
:10207000CE6827EA0C07AE403E4386604668A6431A
:102080000C79C4F30014944034434460C4688E68EF
:1020900024EA0C04AE402643C6604C68E4006FD5C9
:1020A0003B4C256845F480452560246822F00305F3
:1020B00004F480440094374C2E19D6F8084895074C
:1020C0002F0F09FA07F5AC43334DA84201D1002583
:1020D0002EE0324DA84201D1012529E0304DA84221
:1020E00001D1022524E02F4DA84201D103251FE094
:1020F0002D4DA84202D104251AE041E02B4DA84203
:1021000001D1052514E02A4DA84201D106250FE092
:10211000284DA84201D107250AE0274DA84201D148
:10212000082505E0254DA84201D1092500E00A2532
:10213000BD402543C6F80858DBF800405D464E68B0
:102140009C43F60300D51C432C60DEF80040754626
:102150004E689C43B60300D51C432C600B4D0835DC
:102160002C684E689C43F60200D51C432C60074D3A
:102170000C352C684E689C43B60200D51C432C607D
:10218000521C102AFFF444AFBDE8F88F003C014018
:102190004438024000300140000002400004024088
:1021A00000080240000C02400010024000140240EF
:1021B00000180240001C024000200240002402409F
:1021C0000069084000D0012070470AB18161704762
:1021D0000904FBE701488068704700003C000020CC
:1021E0000248816802781144816070473C000020F9
:1021F0000B4810B5016841F400710160016841F4B9
:1022000080610160016841F480710160032000F089
:102210008DF8002000F006F800F03EF8002010BD18
:10222000003C024010B5014688B00022192000F0A1
:102230005DF8192000F04CF813480024016841F0C3
:1022400001010160006805A900F0010006906846E0
:1022500000F016F900F04AF90C494000B0FBF1F12A
:102260000C480B4A491E026040F2E732C0E90324E1
:10227000C0E9011400F0B4FC10B1012008B010BD99
:10228000044800F01BFDF9E74438024040420F00CB
:1022900000000140380900200C4882B0016841F478
:1022A00080410160006800F4804000900748001FF2
:1022B000016841F0805101600068002200F0805008
:1022C00000900F21901E02B000F010B84438024078
:1022D000002809DB00F01F02012191404009800025
:1022E00000F1E020C0F8001170470000F0B40E4B80
:1022F0001B680C46C3F30223C3F10705042D00D964
:102300000425191D072901D2002300E0DB1E012648
:1023100006FA05F1491E214099409E40761E16405E
:102320003143F0BC02F013BD0CED00E0064900F0B3
:10233000070208684FF6FF03184040EA0220034AEC
:1023400010430860704700000CED00E00000FA0543
:102350002DE9F0470E46050065D0DFF81481D8F866
:102360000000F7B200F00F00B04207D288F800700A
:10237000D8F8000000F00F00B04254D128683D4C5E
:10238000810712D5400703D5206840F4E050206053
:102390002878000703D5206840F46040206020685A
:1023A000A96820F0F000084320602878C0072DD0ED
:1023B000304968680839012812D0022813D0032850
:1023C00011D00968890700292DDA216821F003015D
:1023D00001432160FFF7FEFE814641F2883A0EE09C
:1023E00009688903EFE709688901ECE7FFF7F2FE66
:1023F000A0EB0901514502D90320BDE8F087206810
:10240000696800F00C00B0EB810FEFD1D8F8001034
:10241000404601F00F01B14207D90770006800F093
:102420000F00B04201D00120E7E72878400705D52A
:102430002068E96820F4E05008432060287800070D
:1024400006D52068296920F4604040EAC100206078
:1024500000F05CF82168084AC1F30311515CC840E0
:10246000064908600020FFF7DDFE0020C5E70000F8
:10247000003C0240083802401C5E00084800002072
:102480000F2202600C4A136803F0030343601368D1
:1024900003F0F0038360136803F4E053C360126831
:1024A0004FF4E05303EAD20202610448006800F0EE
:1024B0000F0008607047000008380240003C0240EE
:1024C00001480068704700004800002004480549A2
:1024D00000680968044AC1F38221515CC840704712
:1024E00048000020083802402C5E000804480549D6
:1024F00000680968044AC1F34231515CC840704722
:1025000048000020083802402C5E0008154810B52D
:10251000006810F00C02144813D01449042A0FD09C
:10252000082A0ED10F4C241F2268236802F03F02B4
:102530005B0207D52068C0F38810A0FB010106E00C
:10254000084610BD2168C1F38811A1FB00010023DA
:10255000FDF7A8FE2168C1F30141491C4900B0FB09
:10256000F1F010BD083802400024F400001BB70051
:102570002DE9F84F050076D02878DFF8F8B2BE4C88
:10258000C00749D0DBF800105846C1F3810101298A
:1025900008D00068C0F3810002280AD1201D00681D
:1025A000400206D52068800336D568680028E2D04E
:1025B00032E06868B0F5803F10D0B0F5A02F2068F9
:1025C00010D020F480302060206820F4802020602B
:1025D0006868A0B1FFF7FEFD06460CE0206840F4F5
:1025E0008030F4E740F480202060F7E7FFF7F2FD49
:1025F000801B642873D820688003F7D50CE0FFF7B0
:10260000E9FD064605E000BFFFF7E4FD801B6428F6
:10261000F0D820688003F7D42878DFF8608280073C
:102620004FF000093ED5DBF80010584611F00C0FB2
:1026300009D00068C0F3810002280BD18D48001F2B
:102640000068400206D42068800715D5E868012894
:1026500009D111E0E868B8B10120C8F80000FFF71F
:10266000B9FD064605E002E1FFF7B4FD801B022834
:10267000C0D820688007F7D52068296920F0F800C5
:1026800040EAC10020600DE0C8F80090FFF7A2FD0D
:10269000064604E0FFF79EFD801B02281FD8206835
:1026A0008007F7D42878000722D5724E74486969EC
:1026B0006C3671B101210160FFF78CFD074604E023
:1026C000FFF788FDC01B022809D830688007F7D5BE
:1026D0000EE0C0F80090FFF77DFD074605E083E0BF
:1026E000FFF778FDC01B02287ED830688007F7D43A
:1026F0002878400768D5DFF87CA100270AF1380A5E
:10270000DAF80000C0000BD4DAF8001041F0805174
:10271000CAF80010DAF80000012700F0805000909D
:10272000584E3068C00510D4306840F48070306076
:10273000FFF750FD009005E0FFF74CFD0099401AAF
:10274000022851D83068C005F6D54A4EA8686836C8
:1027500001280FD00528306810D020F0010030602B
:10276000306820F004003060A868B8B1FFF732FD8F
:1027700000900FE0306840F00100F4E740F0040002
:102780003060F7E7FFF726FD0099411A41F28830E3
:10279000814264D830688007F4D50EE0FFF71AFD57
:1027A000009007E0FFF716FD0099411A41F28830CA
:1027B000814254D830688007F4D42FB1DAF8001081
:1027C00021F08051CAF80010A869C0B3DBF80010EE
:1027D000C1F3810102294AD00228484607D0C8F82F
:1027E0006000FFF7F7FC00E039E005463AE04746B5
:1027F000C8F86000FFF7EEFC064604E0FFF7EAFCCD
:10280000801B02282BD820688001F7D4D5E9070166
:102810000843A96A1C4A490802EB01416A6A41EA75
:102820008211084395F82C1040EA01611148001FFD
:10283000016001203866FFF7CDFC054605E014E095
:10284000FFF7C8FC401B022809D820688001F7D593
:102850000BE000BFFFF7BEFC401B022802D903209B
:10286000BDE8F88F20688001F4D40020F8E701204B
:10287000F6E70000083802400038024000004742F6
:10288000800E4742007000400000FFFF70B504005A
:1028900005D00025A56294F8510010B106E0012092
:1028A00070BD84F85050204600F030F8022084F8C3
:1028B00051002068016821F040010160D4E9010164
:1028C0000843D4E903121143084361690843218B8B
:1028D00001F400710843E1690843216A0843A16AD1
:1028E000084321680860A069042101EA1040616A78
:1028F0000843216848602068C16921F40061C16112
:102900006565012084F85100002070BD10B586B0C7
:10291000044614216846FDF70FFD144920688842DB
:1029200021D113480021026842F48012026000683D
:1029300000F4801005900E481438026842F020021E
:102940000260006800F0200005904FF46070009075
:102950000220CDE90101032003900520049069467F
:102960000448FFF747FB06B010BD000000500140CF
:1029700044380240001402402DE9F84F044690F814
:10298000500000270A9E1D4692468B464FF00109D3
:1029900001280ED0012084F85000FFF71BFC804670
:1029A00094F85100616801280CD0B1F5827F07D1FD
:1029B00002E00220BDE8F88FA16809B9042801D01F
:1029C0000227C2E0BBF1000F27D0BAF1000F24D0DC
:1029D0001DB394F85100042802D0052084F851005A
:1029E00000206065C4F838A0E587A587C4F830B03A
:1029F000E586A5862064606420680168490603D4E2
:102A0000016841F040010160E068B0F5006F606866
:102A100005D0E8B3012D46D07FE0012795E008B14D
:102A2000012D39D1206B21680088C860206B801C83
:102A30002063E08E401EE0862EE0206881688907D2
:102A40000FD5E18E69B1B9F1010F0AD1216B098867
:102A5000C160206B801C2063E08E401EE0864FF03A
:102A6000000920688168C9070CD0E18F51B1C068A6
:102A7000A16B0880A06B801CA063E08F401EE087E4
:102A80004FF00109FFF7A6FBA0EB0800B04200E001
:102A900009E001D3701C50D1E08E0028CDD1E08F29
:102AA0000028CAD13FE0206B216800780873206BB2
:102AB000401C2063E08E401EE0862EE02068816886
:102AC00089070FD5E18E69B1B9F1010F0AD1216BE8
:102AD00009780173206B401C2063E08E401EE08665
:102AE0004FF0000920688168C9070CD0E18F51B10F
:102AF000C068A16B0870A06B401CA063E08F401EF3
:102B0000E0874FF00109FFF765FBA0EB0800B0423A
:102B100002D3701C01D010E07EB1E08E0028CDD130
:102B2000E08F0028CAD142463146204601F0A0FB82
:102B300028B101272020606507E0032705E0A06891
:102B400018B92068C16880680090012084F851009D
:102B5000002084F8500038462CE74FF0E02104288C
:102B6000086903D020F004000861704740F00400B9
:102B7000FAE710B5401EB0F1807F01D3012010BDEF
:102B80004FF0E02460610F21601702F0E0F80020B0
:102B9000A06107202061002010BD7047704770B50C
:102BA00090F83C20012A19D0012400F83C4F022261
:102BB000427050F83C3C5A689D6822F070060A68E2
:102BC0004968324325F0800529435A6050F83C2C6F
:102BD0009160447000210170084670BD022070BDF4
:102BE00010B5040003D094F83D0010B107E00120B7
:102BF00010BD002084F83C00204600F00DF80220B3
:102C000084F83D00211D206801F042FC012084F879
:102C10003D00002010BD000008B5234A016823488C
:102C200091420ED1016841F002010160006800226A
:102C300000F00200009001211D20FFF757FB1D202E
:102C40002EE01B4A914208D1016841F00801016061
:102C5000006800F00800009008BD164A91420ED1AD
:102C6000016841F0100101600068002200F01000CE
:102C7000009002213620FFF739FB362010E00E4A83
:102C80009142E9D1016841F04001016000680022F1
:102C900000F04000009004212B20FFF727FB2B20A1
:102CA000BDE80840FFF714BB000400404038024074
:102CB000000C004000100040001800400168CA6885
:102CC00042F00102CA600068816801F0070106292C
:102CD00003D0016841F0010101600020704770B528
:102CE000044690F83C00012817D0012584F83C5098
:102CF000022084F83D002068826822F0770222F4E6
:102D00007F4282600868502830D00DDC20284DD0EA
:102D100005DC98B310283BD148E0022070BD302874
:102D200044D0402834D139E0602828D0702806D01B
:102D3000B0F5805F2CD0B0F5005F29D10AE0CB68F8
:102D4000D1E90121206801F014FC2068816841F07C
:102D5000770109E0CB68D1E90121206801F009FC85
:102D60002068816841F48041816011E0CA68496847
:102D7000206801F0D3FC5021206807E016E0CA6803
:102D80004968206801F0DBFC6021206801F0FBFB52
:102D900084F83D50002084F83C0070BDCA68496842
:102DA000206801F0BBFC40212068EFE72268014663
:102DB0001046EBE7704770B50446006801694FF0B4
:102DC0000005C943890715D4C168C943890711D4CF
:102DD000E91E016101202077206880698007204674
:102DE00002D0FFF7E7FF04E000F0C2F8204600F051
:102DF00044F9257720680169C943490717D4C16898
:102E0000C943490713D46FF0040101610220207700
:102E10002068806910F4407F204602D0FFF7CAFF87
:102E200004E000F0A5F8204600F027F92577206897
:102E30000169C943090716D4C168C943090712D4F7
:102E40006FF008010161042020772068C0698007C5
:102E5000204602D0FFF7AEFF04E000F089F82046DC
:102E600000F00BF9257720680169C943C90617D41A
:102E7000C168C943C90613D46FF01001016108206D
:102E800020772068C06910F4407F204602D0FFF709
:102E900091FF04E000F06CF8204600F0EEF8257792
:102EA00020680169C943C90708D1C168C943C90776
:102EB00004D1891E0161204600F002F920680169F1
:102EC000C943090609D4C168C943090605D46FF08E
:102ED000800101612046FFF760FE20680169C94357
:102EE000490609D4C168C943490605D46FF04001B9
:102EF0000161204600F026F920680169C94389066E
:102F00000BD4C168C943890607D46FF02001016161
:102F10002046BDE87040FFF741BE70BD10B586B0D9
:102F2000044614216846FDF707FA0E4920688842D6
:102F300015D10D480021026842F08002026000684D
:102F400000F0800005904FF4E05000900220CDE9A1
:102F50000101CDE9031069460448FFF74BF806B0BC
:102F600010BD0000000C004030380240001C024040
:102F7000704770B5044690F83C000D4601280DD00E
:102F8000012684F83C60022084F83D0042B1042A06
:102F900018D0082A2AD00C2A4DD139E0022070BD61
:102FA000206801F0F9FA2068816941F00801816127
:102FB0002068816921F004018161206881692A69A2
:102FC000114311E0206801F017FB2068816941F48A
:102FD000006181612068816921F4806181612068DC
:102FE00081692A6941EA0221816124E0206801F0B7
:102FF00039FB2068C16941F00801C1612068C169DD
:1030000021F00401C1612068C1692A69114311E0FE
:10301000206801F05BFB2068C16941F40061C16177
:103020002068C16921F48061C1612068C1692A6991
:1030300041EA0221C16184F83D60002084F83C002F
:1030400070BD10B5040003D094F83D0010B107E046
:10305000012010BD002084F83C00204600F00CF850
:10306000022084F83D00211D206801F011FA0120A2
:1030700084F83D00002010BD7047704710B504462D
:103080000068012201F068FA0B492068884202D0EA
:103090000A49884203D1416C41F4004141642068EF
:1030A000816801F00701062903D0016841F00101A0
:1030B0000160002010BD000000000140000401403C
:1030C00010B5184A0168914203D1BDE81040FFF7DE
:1030D00087B8154A91420BD114490868026842F03A
:1030E000010202600868C16841F00101C16010BDC1
:1030F0000F498842FBD00F498842F8D00E498842D8
:10310000F5D101F0A1F80D4C6088401C80B26080C0
:103110000528ECD110210A48FFF752F82070002052
:10312000608010BD00000140000C0040E004002061
:10313000A004002060050020200500201C000020C5
:1031400000000240704770B5040004D094F83900C4
:10315000002510B106E0012070BD84F838502046EB
:1031600000F022F8242084F839002068C16821F496
:103170000051C160204601F079FB2068016921F40B
:10318000904101612068416921F02A014161206874
:10319000C16841F40051C160E563202084F8390022
:1031A00084F83A00002070BD2DE9F04F87B0054645
:1031B00014216846FDF7C0F8CD49DFF83083103997
:1031C000D5F800C00024DFF8289302220123032051
:1031D000DFF820A30E158F154FF0080BC4453AD128
:1031E000D9F8008048F08048C9F80080D9F800C0BC
:1031F0000CF0804CCDF814C0D1F800C04CF0100C8D
:10320000C1F800C0096801F010010591C1018DE805
:103210000E00CDE9030B69465046FEF7EBFEDFF8E2
:10322000DC82B5494046C8F800104FF02061C0E983
:103230000114C0E90346C8F81440C0E90647C8F8BD
:103240002040C8F82440DAE0C5F83480C8F8385087
:1032500007B0BDE8F08FDFF8A882C44545D1D9F8A2
:10326000008048F00048C9F80080D9F800C00CF090
:10327000004CCDF814C0D1F800C04CF0100CC1F8CF
:1032800000C009688DE80D0001F01001CDE904B11E
:10329000039069465046FEF7ADFEDFF8608296491E
:1032A00008F1600848314046C8F800100905C0E937
:1032B0000114C0E90346C8F814404FF48031C8F83F
:1032C0001840C8E90771C8F82440FEF7A9FD08B105
:1032D000FDF7C6FCC5F83480002206215320C8F84B
:1032E0003850FFF703F853204EE0DFF81882DFF87C
:1032F00000E24FF0070A0EF1040EC44547D1DEF894
:10330000008048F01008CEF80080DEF800C00CF015
:10331000100CCDF814C0D1F800C04CF0020CC1F86C
:1033200000C0096801F002010591C0218DE80E007E
:10333000CDE9030A69467448FEF75CFEDFF8BC81FC
:10334000724908F1C0084046C8F800104FF000610B
:10335000C0E90114C0E90346C8F814408912C8F84E
:103360001840C8E90771C8F82440FEF759FD08B1B4
:10337000FDF776FCC5F83480002205212520C8F829
:103380003850FEF7B3FF2520FEF7A2FF60E7DFF815
:103390008081C4453BD1D9F8008048F40038C9F891
:1033A0000080D9F800C00CF4003CCDF814C0D1F86E
:1033B00000C04CF0080CC1F800C0096801F0080119
:1033C000059160218DE80E00CDE9030A6946514858
:1033D000FEF710FE4849DFF8408130314046C8F81A
:1033E00000104FF00061C0E90114C0E90346C8F8BD
:1033F0001440C0E90647C8F82040C8F82440FEF74A
:103400000FFD00283FF420AFFDF72AFC1CE7DFF892
:103410000C81C4451DD1D9F8005045F48025C9F868
:103420000050D9F8004004F4802405940C6844F05E
:1034300008040C60096801F0080105914FF440711F
:103440008DE80E00CDE9030A69463248FEF7D2FD49
:10345000FEE6DFF8CC80C44598D1DEF8008048F065
:103460002008CEF80080DEF800C00CF0200CCDF86B
:1034700014C0D1F800C04CF0400CC1F800C009687D
:1034800001F0400105914FF484418DE80E00CDE933
:10349000030B69462348FEF7ADFDDFF87C801B492E
:1034A00008F1600818394046C8F800108905C0E9DD
:1034B0000114C0E90346C8F814404FF40031C8F8BD
:1034C0001840C8E90771C8F82440FEF7A9FC08B104
:1034D000FDF7C6FBC5F83480002206214720C8F856
:1034E0003850FEF703FF47204EE700000078004009
:1034F000403802400010024058600240200700207F
:10350000007C004000100140000402404064024082
:1035100000440040000C02404008002000480040E9
:103520000014014000180240FEE700007FB50024AF
:103530000E2269463B2000F02BFABDF8000041BA8C
:1035400027480180BDF8021049BA4180BDF8041037
:1035500049BA8180BDF8061049BAC180BDF808108B
:1035600049BA0181BDF80A104ABA4281BDF80C106F
:1035700049BA0DB200F1A0018581CB880B818B88FF
:10358000CB804B888B800B884B800A805FF00002D9
:1035900031F81230521C2344D2B21CB2052AF7D3A0
:1035A000052694FBF6F141810D490023AA31CA8812
:1035B0000A818A88CA804A888A800A884A800D805F
:1035C0004FEA030231F81240521C2344D2B21BB21C
:1035D000052AF7D393FBF6F1818141827FBD00007C
:1035E0003C4900202DE9F0412DED028B02F00EFB4D
:1035F0007F49804B4A78522A02D0532A0DD106E0E7
:10360000D1F80220DA61D1F806201A6205E0D1F87B
:1036100002205A62D1F806209A620A7B522A02D00E
:10362000532A0DD106E0D1F80D20DA61D1F811202E
:103630001A6205E0D1F80D205A62D1F811209A6281
:10364000CA7D522A02D0532A09D104E08A69DA617C
:10365000C969196203E08A695A62C9699962654950
:103660002431B1F9022000EE102AF8EEC00A9FEDD5
:10367000620A5F4A60EE800AE63AC2ED010AB1F9D9
:10368000041001EE101AA2F13801B8EEC11A21EEB1
:10369000000A81ED010A91F83550052D59D906250A
:1036A00081F8355091ED021A544E554F30EE411AC3
:1036B000F7EE001A11EE105A81ED001AB54204D946
:1036C00091ED041A31EE211A07E011EE105ABD42B5
:1036D00005DD91ED041A31EE611A81ED041AD1ED88
:1036E000042A9FED482AB0EE401A02EE821AD1ED6C
:1036F000032A31EE621ADFED442A21EE221A81ED0F
:10370000051A92ED021A30EEC11A11EE105A82ED2E
:10371000001AB54204D992ED041A31EE211A07E0DD
:1037200011EE105ABD4205DD92ED041A31EE611A18
:1037300082ED041AD2ED041AB0EE601A001B01EEFD
:10374000821AD2ED031A31EE611A82ED051A188140
:1037500003E081ED030AC2ED030A81ED020AC2ED26
:10376000020A91F83500224C401C81F835002148AE
:10377000AE3C1C309FED268AB0F9001000EE101A06
:10378000B0EE481AF8EEC00A9FED200A60EE800AFB
:10379000C4ED070AB0F9021000EE901AF8EEE00A44
:1037A00060EE800AC4ED080AB0F9040000EE900A49
:1037B000F8EEE00A60EE800AC4ED090A94ED0C0A06
:1037C00000F031F884ED090AD4ED080A94ED0B0AF3
:1037D000B0EE481A00F027F884ED080A84ED0B0AD1
:1037E00094ED090A84ED0C0ABDEC028BBDE8F08172
:1037F000B2490020AC000020A0FEB33B000034C35F
:10380000000034430000B4430000B64101007A3D9B
:1038100000002F44F7EE001A71EEC11A21EE800A63
:1038200000EE810A7047F0EE401A30EEE10ABDEE7C
:10383000C00A10EE100A002800DA404200EE100A1A
:10384000B8EEC00AB4EEC10AF1EE10FA02DDB0EE35
:10385000610A7047B0EE600A704700002DE9F04140
:1038600086B00025142232496846FCF74CFD6420DE
:10387000FEF7A0FB752000F063F82E4C6E4620701A
:1038800006EB4500417816F8150000F0AFF801206E
:10389000FEF790FB6D1CEDB20A2DF1D3264E0025EC
:1038A00006F1340706F14C08FFF740FEB6F90C00AC
:1038B000052D00EE100A07EB8500B8EEC00A80ED7A
:1038C000000AB6F90A0000EE900A08EB8500F8EE4F
:1038D000E00AC0ED000A94ED031A30EE010A84ED0F
:1038E000030A94ED041A70EE810AC4ED040A17D19C
:1038F000B1EE081A1048C0EE011A1A30BDEEE10A06
:1039000010EE101A80EE810A8181BDEEC00A10EE21
:10391000101A9FED0A0A418184ED030A84ED040A1E
:103920006D1CEDB2062DBFD306B00020BDE8F081BE
:10393000345E0008AC0000203C490020000000007C
:10394000F8B5104E0446002240213046FEF73DFCFB
:1039500044F080000C4C3725E21C20710123511CDF
:103960000A480095FFF708F8E21C0123511C07489C
:103970000095FFF701F8012240213046FEF725FCB3
:10398000E078F8BD00140240AC000020480400209C
:10399000F8B5134F15460E4604460022402138461E
:1039A000FEF713FC0F4944F08000372488712C3156
:1039B000A1F127020870012326390B480094FEF775
:1039C000DBFF08492B4632462C3107480094FEF7AE
:1039D000D3FF012240213846FEF7F7FB0020F8BD57
:1039E00000140240AC00002048040020F8B5114F3C
:1039F0000E460446002240213846FEF7E6FB04F05E
:103A00007F000D4C3725621CA0700123511C0B4810
:103A10000095FEF7B1FFA670621C0123511C0748F8
:103A20000095FEF7A9FF012240213846FEF7CDFBA5
:103A30000020F8BD00140240AC0000204804002023
:103A40007FB5002415480094019402941249039410
:103A500001604FF48031C0E901140125046105764D
:103A600080F820400E49C0E90A14C561C46080F89E
:103A700030404561FDF755FB08B1FDF7F1F809202D
:103A8000CDE90005694602940448FDF795FA00283F
:103A900001D0FDF7E5F87FBD00200140FC000020CB
:103AA0000100000F0F4810B50D490160062141606B
:103AB00000214FF480328160C0E903124FF44012BC
:103AC0004261017641768176C17601774177FDF7D3
:103AD0001CFF002803D0BDE81040FDF7C1B810BDA1
:103AE00000640040A40100200F4810B50D4901609A
:103AF0000621416000214FF480328160C0E9031249
:103B00004FF440124261017641768176C1760177A9
:103B10004177FDF7FAFE002803D0BDE81040FDF71D
:103B20009FB810BD00680040CC010020214808B5B6
:103B3000016841F480010160016801F48001009195
:103B4000016841F4001101600068002200F40010D7
:103B5000009005210E20FEF7C9FB0E20FEF7B8FBF2
:103B6000002205211020FEF7C1FB1020FEF7B0FB5C
:103B7000002205211120FEF7B9FB1120FEF7A8FB5A
:103B8000002205213920FEF7B1FB3920FEF7A0FB0A
:103B9000002205213A20FEF7A9FB3A20FEF798FB08
:103BA000002205213C20FEF7A1FBBDE808403C2097
:103BB000FEF78EBB3038024010B59CB01C2216496F
:103BC0006846FCF7A0FB0021684601F073F9134C2E
:103BD00011491C2220601C3107A8FCF794FB00212E
:103BE00007A801F067F90C4960601C2238310EA863
:103BF000FCF789FB00210EA801F05CF90649A060E2
:103C00001C22543115A8FCF77EFB002115A801F0F9
:103C100051F9E0601CB010BDA45D00080400002054
:103C20002DE9F04F87B014216846FCF785FB664804
:103C30000024016841F010010160016801F01001E9
:103C40000591016841F040010160016801F0400107
:103C50000591016841F002010160016801F0020173
:103C60000591016841F008010160016801F0080157
:103C70000591016841F480710160016801F480716F
:103C80000591016841F080010160016801F0800147
:103C90000591016841F020010160016801F02001F7
:103CA0000591016841F0010101600068DFF81CA185
:103CB00000F001000590002240F60C015046FEF78E
:103CC00084FADFF80C8142F2FE17002239464046A2
:103CD000FEF77BFADFF8FC9000227C214846FEF7D5
:103CE00074FADFF8F4B0002244F240015846FEF7BF
:103CF0006CFA0C2001250326CDE90005CDE902462A
:103D000069465046FEF776F90097CDE901546946B9
:103D100040460394FEF76EF9304F8420CDE900074A
:103D2000694602942E48FEF765F97C200090CDE9A3
:103D30000154694648460394FEF75CF94020CDE9FA
:103D40000005CDE9024669465846FEF753F90420BE
:103D5000CDE90004694623480294FEF74BF9102090
:103D6000CDE90007694602941F48FEF743F9E802CF
:103D70000090CDE90154694650460394FEF73AF9A4
:103D8000A8030090CDE90154694658460394FEF714
:103D900031F9002205210820FEF7A8FA0820FEF7D5
:103DA00097FA002205210A20FEF7A0FA0A20FEF762
:103DB0008FFA002205211720FEF798FA1720FEF748
:103DC00087FA07B0BDE8F08F30380240001002409B
:103DD00000180240001C02400014024000001110B4
:103DE000002002400004024000000240104810B5CC
:103DF0000E4901604FF48271416000218160C16011
:103E00004FF400720161C0E905123022C0E90721B8
:103E1000416281620A21C162FEF738FD002803D0A9
:103E2000BDE81040FCF71CBF10BD00000050014071
:103E3000480400201FB50021114800910191029112
:103E40000E4A039102605322C0E901210422C0E915
:103E5000032180218161FEF7C3FE08B1FCF700FF5A
:103E60004FF48050009069460548FEF738FF08B1CE
:103E7000FCF7F6FE0248FEF721FF1FBD00180040C8
:103E80006005002010B586B0002418480094019405
:103E90000294039404941449059401605321C0E9E9
:103EA00001143121C0E9031480218161FEF798FEDD
:103EB00008B1FCF7D5FE4FF48050009069460B48DE
:103EC000FEF70DFF08B1FCF7CBFE049404A90748E8
:103ED0000594FEF764FE08B1FCF7C2FE0348FEF746
:103EE000EDFE06B010BD000000040040A00400205C
:103EF00010B58EB000240794089409940A940B948A
:103F00001C2168460C94FCF717FA284826490160E2
:103F100040F24731C0E9011440F2CF71C0E9031407
:103F200080218161FEF75CFE08B1FCF799FE4FF439
:103F30008050079007A91D48FEF7D1FE08B1FCF795
:103F40008FFE1A48FFF77DF808B1FCF789FE0B9445
:103F50000BA916480C94FEF722FE08B1FCF780FE70
:103F600060200090C820CDE90104002269460F4876
:103F70000494FEF7FEFF08B1FCF772FE04226946C6
:103F80000A48FEF7F6FF08B1FCF76AFE0822694608
:103F90000648FEF7EEFF08B1FCF762FE0348FEF7A5
:103FA000BDFF0EB010BD0000000C0040E00400207A
:103FB0001CB50024104800940E490194016040F2A1
:103FC0004731C0E901146321C16080218161FEF79E
:103FD00007FE08B1FCF744FE0094694606480194C8
:103FE000FEF7DDFD08B1FCF73BFE0348FEF766FE79
:103FF0001CBD000000100040200500200C4810B53A
:104000000A4901604FF4E1314160002181600C22D6
:10401000C160C0E904128161C161FFF794F8002812
:1040200003D0BDE81040FCF71BBE10BD0078004077
:10403000A00500200C4810B50A4901604FF4E13199
:104040004160002181600C22C160C0E904128161DD
:10405000C161FFF778F8002803D0BDE81040FCF7F5
:10406000FFBD10BD007C0040E00500200C4810B5ED
:104070000A4901600B494160002181600C22C16046
:10408000C0E904128161C161FFF75DF8002803D027
:10409000BDE81040FCF7E4BD10BD00000010014079
:1040A00020060020A08601000C4810B50A490160D6
:1040B0004FF4E1314160002181600C22C160C0E910
:1040C00004128161C161FFF73EF8002803D0BDE80A
:1040D0001040FCF7C5BD10BD004400406006002044
:1040E0000C4810B50A4901604FF4E13141600021EC
:1040F00081600C22C160C0E904128161C161FFF7D7
:1041000022F8002803D0BDE81040FCF7A9BD10BD7F
:1041100000480040A00600200C4810B50A49016084
:104120004FF4E1314160002181600C22C160C0E99F
:1041300004128161C161FFF706F8002803D0BDE8D1
:104140001040FCF78DBD10BD00140140E0060020BA
:10415000FEE700002DED028B82B0642000F08DFEA2
:1041600001F054FD9FED128A0090DFED120AB0EECF
:10417000481A9FED110A114801F00CFA0F4C104D2E
:10418000B0EE480A0D48E56001F0DCF9D4ED010A13
:10419000BCEEE00A10EE101ABCEEE00A10EE100AB7
:1041A000FCF75FFDC821684600F06EFEE8E70000FE
:1041B0000000C842000016430AD7233C584B002099
:1041C0000000F042034800210161028982814161BF
:1041D00070470000684600207047000030B4034C70
:1041E0008467034CC46730BC00F07EBFE950000810
:1041F000F750000810B50D4C012204212046FDF7B0
:10420000E4FF012208212046FDF7DFFF01221021F3
:104210002046FDF7DAFF012220212046FDF7D5FFD9
:10422000BDE810403220FDF7C5BE0000001C024072
:1042300010B50446FCF758FD024800EB840080ED01
:10424000000A10BD6448002002488168491C816052
:10425000704700005048002010B50446FCF744FDAC
:10426000024800EB840080ED000A10BD7C4800206D
:1042700038B50B46009204460022802100F008F871
:10428000002804D0606D40F020006065032038BD38
:104290002DE9F0411D4617460E460446DDF818800C
:1042A00008E0681C06D0FDF795FFA0EB0800A842C7
:1042B0000BD255B12068806836EA000030D000206B
:1042C000B842EED10020BDE8F0812068416821F0BD
:1042D000E00141606068B0F5827F0BD1A068B0F565
:1042E000004F02D0B0F5806F04D12068016821F042
:1042F00040010160A06AB0F5005F09D12068016843
:1043000021F4005101602068016841F4005101600E
:10431000012084F85100002084F850000320D2E7E7
:104320000120CDE74FF47A74204600F0A6FDFBE7AC
:1043300000F0B6BD30B593B030216846FBF7FCFF06
:1043400014210CA8FBF7F8FF22480025016841F072
:1043500080510160006800F0805011901E48016893
:1043600041F4404101600068022400F44040119093
:1043700001200090000401908001CDE906400C204E
:1043800008904FF4A870CDE9090404200B9068460A
:10439000FEF7EEF80CA90F2081E831004FF4A05091
:1043A0000F90E002109005210CA8FDF7D1FFFEF759
:1043B00087F84FF47A71B0FBF1F0FEF7DAFB0420D6
:1043C000FEF7CBFB00220F21501EFDF78FFF13B02D
:1043D00030BD0000403802400070004010480168C5
:1043E00041F4700101600F48016841F00101016072
:1043F0000C4A00210832116002680B4B1A4002601F
:10440000031D0A4A1A60026822F4802202600548ED
:104410000C3001600249580680390860704700007E
:1044200088ED00E000380240FFFFF6FE1030002467
:10443000044900224A808A80CA808A60024ACA608F
:104440007047000050480020200500200148FEF77A
:10445000B2BC0000380900200148FEF7ACBC0000E7
:10446000A0040020034A1060101D0160001D0160BF
:1044700070470000340C00400148FEF79CBC00006F
:10448000200500200148FEF796BC000060050020D2
:10449000F0B50268254C264D264E274F274B4FF08E
:1044A000804CA04209D0604507D0A84205D0B04258
:1044B00003D0B84201D0984204D122F0700E4A686D
:1044C00042EA0E02A0421BD0604519D0A84217D084
:1044D000B04215D0B84213D0984211D0184DA8421E
:1044E0000ED0184DA8420BD0174DA84208D0174D3A
:1044F000A84205D0164DA84202D0164DA84203D1BD
:1045000022F44075CA682A434D6922F080022A438A
:1045100002608A68C2620A688262A04201D0984240
:1045200001D10969016301214161F0BD0000014031
:104530000004004000080040000C0040000401405E
:104540000040014000440140004801400018004084
:10455000001C00400020004010B501F01F030121A5
:10456000046A99408C430462016A9A4011430162D3
:1045700010BD10B5846842EA032224F47F440A4344
:104580002243826010BD826822F070020A4342F02A
:104590000701816070470000F0B5026A22F0010255
:1045A0000262036A42688469124E24F073050C6843
:1045B0002C4323F002058B682B430D4DA84201D0FC
:1045C000B04205D123F00807CB683B4323F0040336
:1045D000A84201D0B04205D14D6922F44072154382
:1045E0008A692A4342608461496841630362F0BD7D
:1045F0000000014000040140F0B5026A22F0100200
:104600000262026A436884690D6824F4E64444EA5D
:1046100005248D6822F0200242EA05120F4D104E4B
:10462000A84201D0B04206D1CF6822F0800242EA0F
:10463000071222F04002A84201D0B04207D14D69D2
:1046400023F4406343EA85038D6943EA85034360AD
:104650008461496881630262F0BD0000000001408E
:1046600000040140F0B5026A22F480720262026A1C
:104670004368C46922F4007224F073050C68124E7A
:104680002C438D6842EA05220E4DA84201D0B0426B
:1046900006D1CF6822F4006242EA072222F4806247
:1046A000A84201D0B04207D14D6923F4405343EAF8
:1046B00005138D6943EA05134360C4614968C1630A
:1046C0000262F0BD000001400004014030B5026A02
:1046D00022F480520262046A4268C3690D6823F4BE
:1046E000E64343EA05238D6824F4005444EA053484
:1046F000084DA84202D0084DA84204D14D6922F4C9
:10470000804242EA85124260C361496801640462E2
:1047100030BD0000000001400004014010B5036AF4
:10472000046A24F001040462846924F0F00444EA79
:10473000021423F00A020A438461026210BD10B51C
:10474000036A23F0100303628369046A23F470434D
:1047500043EA023224F0A00343EA011182610162BC
:1047600010BD000038B53B4D29680868C968C0F322
:10477000001001F0100100286BD0002969D004203E
:10478000FFF756FD344C2068016821F001010160FB
:104790003249206888420AD03149884207D02F49DF
:1047A0006031884203D02E496031884201D12021F6
:1047B00022E02A4A1832D11490421DD0284A1832D9
:1047C000904219D0254A7832904215D0244A783246
:1047D000904211D0214A8902303290420CD0204AB6
:1047E0003032904208D01D4A9032904204D01C4A88
:1047F0009032904200D089011A4AD160184A48325A
:10480000904202D9164A121F05E0144AA83290427B
:1048100003D9134A083A116008E0104B0F4A483395
:10482000103A984201D9D16000E0916040680E4989
:10483000C0F10B000880FEF7D5FE21680B20486010
:104840002068016841F00101016028680168406842
:10485000009038BDE0050020800700201060024075
:10486000106402401C000020E60000202DE9F04109
:10487000044600680169E26821F440511143016176
:104880002169A068E269084361691143226808430D
:10489000D16849F20C6399430143D16020684169B2
:1048A000A26921F4407111434161E2696425B2F5C6
:1048B000004F9748974922684FF032083FD08A420C
:1048C00001D082427CD1FDF711FE00EBC00101EB6B
:1048D000001061688900B0FBF1F6FDF707FE00EB00
:1048E000C00101EB001061688900B0FBF1F0B0FB82
:1048F000F5F06FF01801484306EB800108EB01105A
:10490000B0FBF5F000F0F006FDF7F0FD00EBC001A4
:1049100001EB001061688900B0FBF1F0B0FBF5F02D
:1049200006EB0016FDF7E2FD00EBC00101EB001005
:1049300061688900B0FBF1F7FDF7D8FDD2E08A424B
:1049400001D082423DD1FDF7D1FD00EBC00101EB6A
:10495000001061684900B0FBF1F0B0FBF5F0060112
:10496000FDF7C4FD00EBC00101EB001061684900D8
:10497000B0FBF1F7FDF7BAFD00EBC00101EB001051
:1049800061684900B0FBF1F0B0FBF5F06FF0180181
:10499000484307EB800108EBC100B0FBF5F000F0E5
:1049A000F80006EB4006FDF7A1FD00EBC00101EBAE
:1049B000001061684900B0FBF1F7FDF797FD3CE09E
:1049C00055E0FDF783FD00EBC00101EB00106168CD
:1049D0004900B0FBF1F0B0FBF5F00601FDF776FD04
:1049E00000EBC00101EB001061684900B0FBF1F77A
:1049F000FDF76CFD00EBC00101EB001061684900A0
:104A0000B0FBF1F0B0FBF5F06FF01801484307EB95
:104A1000800108EBC100B0FBF5F000F0F80006EBF8
:104A20004006FDF753FD00EBC00101EB001061688B
:104A30004900B0FBF1F7FDF749FD00EBC00101EBC8
:104A4000001061684900B0FBF1F0B0FBF5F06FF0C9
:104A50001801484307EB800108EBC100B0FBF5F0FB
:104A600000F00700216830448860BDE8F081FDF760
:104A70002DFD00EBC00101EB001061688900B0FB67
:104A8000F1F6FDF723FD00EBC00101EB00106168BA
:104A90008900B0FBF1F0B0FBF5F06FF0180148436E
:104AA00006EB800108EB0110B0FBF5F000F0F0061A
:104AB000FDF70CFD00EBC00101EB001061688900FF
:104AC000B0FBF1F0B0FBF5F006EB0016FDF7FEFCD5
:104AD00000EBC00101EB001061688900B0FBF1F749
:104AE000FDF7F4FC00EBC00101EB001061688900E8
:104AF000B0FBF1F0B0FBF5F06FF01801484307EBA5
:104B0000800108EB0110B0FBF5F000F00F00A9E701
:104B10000014014000100140F8B53F4D29680868B5
:104B2000C968C0F3001001F01001002873D00029FB
:104B300071D03A4C2068016821F001010160002029
:104B4000FFF776FB3649206888420AD0354988420B
:104B500007D033496031884203D0324960318842FE
:104B600001D1202122E02E4A1832D11490421DD0CA
:104B70002C4A1832904219D0294A7832904215D0E6
:104B8000284A7832904211D0254A89023032904228
:104B90000CD0244A3032904208D0214A90329042C0
:104BA00004D0204A9032904200D089011E4E1D4A06
:104BB0004832F160904202D91A4A121F05E0184AA1
:104BC000A832904203D9174A083A116008E0144B02
:104BD000134A4833103A984201D9D16000E09160FD
:104BE000122141602068016841F0010101600F4815
:104BF0000D49091D006800F04BFE706838B10C4982
:104C00004FF080500860BFF34F8FBFF36F8F28685D
:104C1000016840680090F8BD20060020E0070020F1
:104C200010600240106402401C00002014000020AC
:104C300004ED00E0F8B53E4C21680868C968C0F38F
:104C4000001001F01001002870D000296ED0394A00
:104C50001068016821F0010101603749106888423D
:104C60000AD03649884207D033496031884203D0A0
:104C700032496031884201D1202122E02E4B183385
:104C8000D91498421DD02D4B1833984219D02A4B75
:104C90007833984215D0294B7833984211D0264B5F
:104CA0008902303398420CD0244B3033984208D0DC
:104CB000214B9033984204D0204B9033984200D03F
:104CC00089011F4D1D4B4833E960984202D91B4BA7
:104CD0001B1F05E0184BA833984203D9174B083B1C
:104CE000196008E0144E144B4836103BB04201D90D
:104CF000D96000E09960092141601068016841F0C5
:104D0000010101600F480E490831006800F0C0FD44
:104D1000A86838B10C494FF080500860BFF34F8F3E
:104D2000BFF36F8F2068016840680090F8BD0000F5
:104D3000E0060020A008002010600240106402403D
:104D40001C0000201800002004ED00E0FEE7090729
:104D5000090E002804DB00F1E02080F80014704701
:104D600000F00F0000F1E02080F8141D704702E011
:104D700008C8121F08C1002AFAD1704770470020E6
:104D800001E001C1121F002AFBD1704770B51B4D15
:104D90006978012904D0002901D10A20287070BD4A
:104DA000174C6169002900DC494248F6FB72424316
:104DB000914216DB2978012601290DD0052903D05F
:104DC00011B100BFFFF7FEF9FBF78EFFBDEEC00A81
:104DD00084ED0B0A6E7070BD0028F3D00948C670D0
:104DE000F0E7D4E90B21881A002800DC501AB0F54E
:104DF000FA6FF0DD00206870CFE70000284B00203C
:104E000068460020E800002010B5048944810A8823
:104E100052BA02814B885BBA4380898849BA818043
:104E20000380131B0169B3F5805F01DD491E03E0B8
:104E300013F5805F01DA491C016102EB413182897F
:104E4000891A416110BD098849BA01818181704781
:104E5000FDF7CEF9FFF76EFA00F010FCFBF7AAFDA4
:104E6000FEF7AAFE00F02AFC00F015F8FEE7014666
:104E70000020842900D0C81C704710B500B901205B
:104E800000F09AFC002010BD10B501B9012100F01E
:104E9000B9FC002010BD10B500F056FD002010BD7B
:104EA00010B500F0A5FE012803D0BDE8104000F0C9
:104EB00031BE10BD7FB50D4604464169B0F908000A
:104EC00081B1A16971B1FFF7D2FFD4E905128DE874
:104ED0000700D4E900102B46226900F05EFE039023
:104EE00004B070BDFFF7C3FF03A9CDE90001208A1C
:104EF0002B4682B2D4E9001000F022FE012801D036
:104F00000020EDE70398EBE770B530EEC01A80EDB6
:104F1000080AC0ED050A80ED0B1AD0ED191A0446F7
:104F20009FED6F2A30EEC00AF5EEC01AB1EE400ACE
:104F3000F1EE10FA0ED0B5EEC01AF1EE10FA02DD65
:104F4000F0EE410A01E0F0EE400AF4EEE10AF1EE83
:104F500010FA12DCD4ED1A0AF5EEC00AF1EE10FADE
:104F60000ED0B5EEC01AF1EE10FA01DDB0EE410A36
:104F7000B4EEE00AF1EE10FA02D2B0EE420A70BDD1
:104F8000E16E04F134000546032902D0042944D01F
:104F900085E094ED000A20EE010A84ED0C0A94ED00
:104FA0000D0AD4ED010A00EE810A84ED0D0A94ED9C
:104FB0000A0AD4ED020A31EE400A60EE200AC4ED7E
:104FC000130A94ED120A9FED471AFEF723FC84EDB5
:104FD0000E0A94ED1D0A2846B8EE400AFBF7DEFBE8
:104FE00094ED0C0AD4ED0D0A04F1500030EE200AC5
:104FF000D4ED0E0A30EE200A84ED140A94ED1C0A5A
:10500000B8EE400AFBF7CAFB94ED140A84ED150ACA
:1050100094ED0E0A84ED120A41E094ED0A0AD4EDF3
:10502000001A71EE400A60EEA10AC4ED0C0AD4ED3C
:10503000010A60EE810AC4ED0D0AF0EE000A00EEEE
:10504000601A94ED090AD4ED020A31EE000A20EE4E
:10505000200A84ED0E0A94ED1D0AB8EE400AFBF713
:105060009DFB94ED0C0AD4ED0D0A04F15C0030EECA
:10507000200AD4ED0E0A30EE200A84ED160AD4ED93
:10508000180A30EE800A84ED170A94ED1C0AB8EE77
:10509000400AFBF783FB94ED170A84ED180A94EDA0
:1050A0000A0A84ED090A94ED0B0A84ED0A0A94EDCC
:1050B000070A84ED060A94ED080A84ED070A94EDC8
:1050C000040A84ED030A94ED050A84ED040AE06EF7
:1050D000032802D094ED170A70BD94ED140A70BD38
:1050E000000000009A99193F00F16C0C8CE80E004A
:1050F00080EC030A704780EC030A70472DE9F04109
:10510000184C0F46054666692068001D00F066FAD7
:1051100038B9206890F82C1001208840A16981439B
:10512000A161681C07D137B12168BDE8F0410E4884
:10513000091D00F097BA20683544B54245602168E2
:1051400005D2A068BDE8F041091D00F073BA60689F
:10515000091D00F06FFA206B854200D22563BDE87F
:10516000F08100004C000020540A00202DE9F0419D
:10517000054600F083FA2E4C2069401C206120680F
:105180002C4F10B1E06940B32DE025602069012863
:1051900029D1002606EB860007EB800000F03CFAE0
:1051A000761C072EF6D323488C3000F035FA2148C0
:1051B000A03000F031FA1F48B43000F02DFA1D483D
:1051C000C83000F029FA1B48DC3000F025FA1948F5
:1051D0008C3060601430A06005E02068E96AC06A25
:1051E000884200D82560E06A401CE062E96A01203C
:1051F000A26988401043A06101EB810007EB8000A9
:10520000291D00F02FFA00F059FAE06900280CD0AF
:105210002068E96AC06A884207D207494FF0805087
:105220000860BFF34F8FBFF36F8FBDE8F0810000C0
:105230004C0000207809002004ED00E010B5044681
:1052400090F8510058B101280CD002280FD05020FE
:1052500080F31188BFF34F8FBFF36F8FFEE7206B92
:1052600000F040FA2046BDE8104000F03BBA10BD07
:1052700010484FF47051420706D0C01D0D4920F070
:105280000700411AC1F570510B4A00230144C2E9DD
:1052900000030839103A21F0070111604B600B60E0
:1052A0000B1AC0E9001393604FF000405360D060C8
:1052B00070470000680A002098000020144E154C2A
:1052C000A6F1C8074FF08058DFF84C9012E000BFFD
:1052D00000F0D4F9F068C568281D00F07FF9206956
:1052E000401E2061E068401EE06000F0E7F92846BB
:1052F000FFF7A4FFE0680028EAD138680128F9D94F
:10530000C9F80080BFF34F8FBFF36F8FF2E7000043
:10531000400A00204C00002004ED00E02DE9F04799
:105320009A46DDE9098481466FF00303206B03EBA5
:1053300082021044089D20F00706700707D0502015
:1053400080F31188BFF34F8FBFF36F8FFEE72318F1
:105350000A5C83F834200A5C12B1401C1028F6D392
:10536000002784F84370072D00D30625E562C4E9C1
:105370001157201D00F05BF904F1180000F057F9F7
:105380002461C5F107006462A061E76484F850708D
:1053900052464946304600F0BFF82060B8F1000F91
:1053A00001D0C8F80040BDE8F087000030B51149D1
:1053B00000E011460A688242FBD34B685C188442C5
:1053C00003D1406818444860084643681C1894425A
:1053D00009D1084C103C2468A24209D052681A44F2
:1053E00042600A6812680260814200D0086030BDE5
:1053F0000460F9E79800002006484168096829B16F
:105400004168C968C9684968016370474FF0FF3156
:10541000FAE700004C00002008484068401C4FF0AC
:10542000500080F3118804D0BFF34F8FBFF36F8F0C
:10543000FEE7BFF34F8FBFF36F8FFEE7A0000020A2
:105440002DE9F0410546002700F0B4FA314E3068EE
:1054500008B9FFF70DFFF06805424BD1C5B3083519
:1054600068070ED005F00700C0F108000544680782
:1054700007D0502080F31188BFF34F8FBFF36F8F99
:10548000FEE72DB37068854234D8224810300146BB
:105490000C6801E020460C466168A94202D22168EE
:1054A0000029F7D131688C4224D007682168016057
:1054B00060680837411B10290FD96019420708D0CE
:1054C000502080F31188BFF34F8FBFF36F8FFEE73B
:1054D00010E041606560FFF769FF61687068401A1D
:1054E0007060B268904200D2B060F0680143002062
:1054F000C4E9000100F0F4FB780707D0502080F3E6
:105500001188BFF34F8FBFF36F8FFEE73846BDE8BA
:10551000F08100008800002010B5031F4FF0807458
:105520001C601B1F21F001011960191F044B0B6047
:1055300014390A60091F6FF0020244380A6010BD76
:105540001954000810EE101A016000EE101A42689B
:10555000016900EE902A01EE101A40EE010A10EEE9
:10556000901A4160C26800EE901A00EE102AF4EE24
:10557000C00AF1EE10FA01DD4260704700EE101A29
:10558000816800EE901AB4EEE00AF1EE10FAF4D25F
:105590004160704710EE101A016110EE901AC16060
:1055A00011EE101A81600021016041607047000017
:1055B00008B5C820FFF761FC00F028FB064C0090FE
:1055C0000020FEF749FE20680721401C2060684645
:1055D000FFF75AFCF4E70000F8000020D0E90132A0
:1055E00001699A60D0E901235A604A68824201D178
:1055F00082684A60002202610868401E08600868EC
:1056000070470000034B036003F1540008608020E2
:1056100010607047F401002000F108014FF0FF32E4
:10562000C0E90112C16001610021016070470021E1
:105630000161704730B50B685A1C02D000F10802B6
:1056400002E0026904E02246546825689D42FAD9C6
:1056500053684B6099608A60516008610168491C19
:10566000016030BD42684A6093688B6093685960FE
:10567000916008610168491C01607047502080F307
:105680001188BFF34F8FBFF36F8F0A494868401CE2
:10569000486001280CD10848006810F0FF0F07D0BF
:1056A000502080F31188BFF34F8FBFF36F8FFEE759
:1056B00070470000A000002004ED00E008494868A1
:1056C00028B1401E486001D180F3118870475020F6
:1056D00080F31188BFF34F8FBFF36F8FFEE7000099
:1056E000A000002070B5002827D0144DA0F10804B8
:1056F0006168E868014207D1502080F31188BFF348
:105700004F8FBFF36F8FFEE722683AB1502080F3CE
:105710001188BFF34F8FBFF36F8FFEE78143616046
:1057200000F048F960686968084468602046FFF73F
:105730003DFEBDE8704000F0D3BA70BD8800002087
:105740004FF0E02000210161816105494FF47A7238
:105750000968B1FBF2F1491E4161072101617047FF
:105760004800002010B5FAF787FD114910280ED324
:1057700000F1E02090F8F0030A78904207D2502020
:1057800080F31188BFF34F8FBFF36F8FFEE7094897
:105790000068896800F4E060884207D9502080F3EF
:1057A0001188BFF34F8FBFF36F8FFEE710BD00006E
:1057B000A00000200CED00E010B5020014D00F484E
:1057C000806B38B1502080F31188BFF34F8FBFF347
:1057D0006F8FFEE700F0EEF800211046FFF78EFC19
:1057E00000F07EFA002807D105494FF0805008608C
:1057F000BFF34F8FBFF36F8F10BD00004C00002030
:1058000004ED00E070B50D4604000BD095B11E4AC2
:10581000906BB8B1502080F31188BFF34F8FBFF366
:105820006F8FFEE7502080F31188BFF34F8FBFF3D7
:105830006F8FFEE7502080F31188BFF34F8FBFF3C7
:105840006F8FFEE700F0B6F852692368591993424A
:1058500004D98B420AD9914202D807E08B42FAD987
:10586000881A21600021FFF749FC00E0216000F068
:1058700037FA002807D105494FF080500860BFF380
:105880004F8FBFF36F8F70BD4C00002004ED00E020
:105890002DE9F0418846040015D0FFF763FF502042
:1058A000EFF3118680F31188BFF34F8FBFF36F8F33
:1058B00094F85000022184F85010E16C491CE16416
:1058C000012808D037E0502080F31188BFF34F8FB4
:1058D000BFF36F8FFEE7A06A38B1502080F31188C4
:1058E000BFF34F8FBFF36F8FFEE7154DA86B0127F6
:1058F00078B104F118011348FFF7B4FEE06A296893
:10590000C96A884217D9B8F1000F13D0C8F80070DF
:1059100011E0201DFFF762FEE16AAA6907FA01F0B3
:105920001043A86101EB81000649B43901EB800006
:10593000211DE1E76F6286F31188BDE8F081000068
:105940004C0000202C0A002010B586B000240394DF
:1059500005AA04A903A80494FFF754FEDDE9030196
:105960000094CDE9011000230EA11048059A00F023
:1059700014F90F490028486311D0502080F3118892
:10598000BFF34F8FBFF36F8F4FF0FF3008630120DD
:10599000C8614C6106B0BDE8104000F041B806B0E7
:1059A00010BD000049444C4500000000BD520008F5
:1059B0004C0000200248816B491C81637047000045
:1059C0004C0000201448816B11B1012141627047E5
:1059D000002141628169B1FA81F1C1F11F0101EB3E
:1059E00081020E4951F822306BB101EB820101F1C5
:1059F00008034A6852684A609A4201D152684A6074
:105A0000D16801607047502080F31188BFF34F8F39
:105A1000BFF36F8FFEE700004C00002078090020E4
:105A20001CB537480168374A914207D1502080F3AE
:105A30001188BFF34F8FBFF36F8FFEE700683149C6
:105A4000491E884207D1502080F31188BFF34F8F41
:105A5000BFF36F8FFEE72C4908780190FF20087094
:105A600008788DF800009DF800009DF8002000F0F7
:105A7000F000904207D0502080F31188BFF34F8F81
:105A8000BFF36F8FFEE79DF80000204B00F0500041
:105A900018700720986005E09DF8002052008DF8EE
:105AA0000020401E9DF800201206F5D498600328BF
:105AB00007D0502080F31188BFF34F8FBFF36F8F53
:105AC000FEE74FF440709860019808700C48203051
:105AD000016841F470010160016841F070410160AA
